:1000000009C021C020C01FC01EC01DC01CC01BC015
:100010001BC019C011241FBECFE9CDBF10E0A0E660
:10002000B0E0E8E8F1E002C005900D92A036B1071B
:10003000D9F710E0A0E6B0E001C01D92A236B107EA
:10004000E1F796D09FC0DCCF1F920F920FB60F92B0
:1000500011240F900FBE0F901F901895C19A81E048
:100060008A95F1F786B3C1988695817008958823A3
:1000700011F4C3980895C39A0895882311F4C4987D
:100080000895C49A089517BABB9AC398B998C19AAB
:10009000BC98C498A49AA39AA29AA09A80B78260A6
:1000A00080BF80B7816080BF80B7826080BF80B72B
:1000B0008E7F80BF85B5846085BD479A4698379806
:1000C00085B5816085BD85B7877E806185BFF894E1
:1000D000A89588E10FB6F89481BD11BC0FBE84B716
:1000E000877F84BF81B5886181BD83E481BDA89588
:1000F0007894C398C4980895C19A81E08A95F1F7DD
:1001000086B3C19881FF27C0809160009091610003
:1001100025E78033920728F401969093610080933D
:1001200060009C013695279536952795369527953D
:1001300041E0243F3407D0F042E02E3E340790F4F3
:100140002F733070232B91F483709070892B71F48E
:10015000C39AC49A08951092610010926000C398E7
:10016000C498089523703070232B91F3C398F1CF76
:100170008ADFC2DF85B7806285BF889585B78F7DAE
:0801800085BFF7CFF894FFCF13
:00000001FF
